{
  "contractName": "HomeTransaction",
  "abi": [
    {
      "constant": true,
      "inputs": [],
      "name": "zip",
      "outputs": [
        {
          "name": "",
          "type": "string"
        }
      ],
      "payable": false,
      "stateMutability": "view",
      "type": "function"
    },
    {
      "constant": true,
      "inputs": [],
      "name": "seller",
      "outputs": [
        {
          "name": "",
          "type": "address"
        }
      ],
      "payable": false,
      "stateMutability": "view",
      "type": "function"
    },
    {
      "constant": true,
      "inputs": [],
      "name": "sellerSigned",
      "outputs": [
        {
          "name": "",
          "type": "bool"
        }
      ],
      "payable": false,
      "stateMutability": "view",
      "type": "function"
    },
    {
      "constant": true,
      "inputs": [],
      "name": "buyerSigned",
      "outputs": [
        {
          "name": "",
          "type": "bool"
        }
      ],
      "payable": false,
      "stateMutability": "view",
      "type": "function"
    },
    {
      "constant": true,
      "inputs": [],
      "name": "realtor",
      "outputs": [
        {
          "name": "",
          "type": "address"
        }
      ],
      "payable": false,
      "stateMutability": "view",
      "type": "function"
    },
    {
      "constant": true,
      "inputs": [],
      "name": "buyer",
      "outputs": [
        {
          "name": "",
          "type": "address"
        }
      ],
      "payable": false,
      "stateMutability": "view",
      "type": "function"
    },
    {
      "constant": true,
      "inputs": [],
      "name": "price",
      "outputs": [
        {
          "name": "",
          "type": "uint256"
        }
      ],
      "payable": false,
      "stateMutability": "view",
      "type": "function"
    },
    {
      "constant": true,
      "inputs": [],
      "name": "finalizeDeadline",
      "outputs": [
        {
          "name": "",
          "type": "uint256"
        }
      ],
      "payable": false,
      "stateMutability": "view",
      "type": "function"
    },
    {
      "constant": true,
      "inputs": [],
      "name": "finalized",
      "outputs": [
        {
          "name": "",
          "type": "bool"
        }
      ],
      "payable": false,
      "stateMutability": "view",
      "type": "function"
    },
    {
      "constant": true,
      "inputs": [],
      "name": "factory",
      "outputs": [
        {
          "name": "",
          "type": "address"
        }
      ],
      "payable": false,
      "stateMutability": "view",
      "type": "function"
    },
    {
      "constant": true,
      "inputs": [],
      "name": "deposit",
      "outputs": [
        {
          "name": "",
          "type": "uint256"
        }
      ],
      "payable": false,
      "stateMutability": "view",
      "type": "function"
    },
    {
      "constant": true,
      "inputs": [],
      "name": "homeAddress",
      "outputs": [
        {
          "name": "",
          "type": "string"
        }
      ],
      "payable": false,
      "stateMutability": "view",
      "type": "function"
    },
    {
      "constant": true,
      "inputs": [],
      "name": "city",
      "outputs": [
        {
          "name": "",
          "type": "string"
        }
      ],
      "payable": false,
      "stateMutability": "view",
      "type": "function"
    },
    {
      "inputs": [
        {
          "name": "_address",
          "type": "string"
        },
        {
          "name": "_zip",
          "type": "string"
        },
        {
          "name": "_city",
          "type": "string"
        },
        {
          "name": "_price",
          "type": "uint256"
        },
        {
          "name": "_seller",
          "type": "address"
        }
      ],
      "payable": false,
      "stateMutability": "nonpayable",
      "type": "constructor"
    },
    {
      "constant": false,
      "inputs": [],
      "name": "sellerSignContract",
      "outputs": [],
      "payable": false,
      "stateMutability": "nonpayable",
      "type": "function"
    },
    {
      "constant": false,
      "inputs": [],
      "name": "buyerSignContractAndPayDeposit",
      "outputs": [],
      "payable": true,
      "stateMutability": "payable",
      "type": "function"
    },
    {
      "constant": false,
      "inputs": [],
      "name": "buyerFinalizeTransaction",
      "outputs": [],
      "payable": true,
      "stateMutability": "payable",
      "type": "function"
    },
    {
      "constant": false,
      "inputs": [],
      "name": "anyWithdrawFromTransaction",
      "outputs": [],
      "payable": false,
      "stateMutability": "nonpayable",
      "type": "function"
    }
  ],
  "bytecode": "0x60806040526000600560006101000a81548160ff0219169083151502179055506000600760006101000a81548160ff0219169083151502179055506000600a60006101000a81548160ff0219169083151502179055503480156200006257600080fd5b5060405162001a1d38038062001a1d833981018060405260a08110156200008857600080fd5b810190808051640100000000811115620000a157600080fd5b82810190506020810184811115620000b857600080fd5b8151856001820283011164010000000082111715620000d657600080fd5b50509291906020018051640100000000811115620000f357600080fd5b828101905060208101848111156200010a57600080fd5b81518560018202830111640100000000821117156200012857600080fd5b505092919060200180516401000000008111156200014557600080fd5b828101905060208101848111156200015c57600080fd5b81518560018202830111640100000000821117156200017a57600080fd5b50509291906020018051906020019092919080519060200190929190505050806000806101000a81548173ffffffffffffffffffffffffffffffffffffffff021916908373ffffffffffffffffffffffffffffffffffffffff16021790555033600160006101000a81548173ffffffffffffffffffffffffffffffffffffffff021916908373ffffffffffffffffffffffffffffffffffffffff16021790555084600290805190602001906200023292919062000277565b5083600390805190602001906200024b92919062000277565b5082600490805190602001906200026492919062000277565b5081600681905550505050505062000326565b828054600181600116156101000203166002900490600052602060002090601f016020900481019282601f10620002ba57805160ff1916838001178555620002eb565b82800160010185558215620002eb579182015b82811115620002ea578251825591602001919060010190620002cd565b5b509050620002fa9190620002fe565b5090565b6200032391905b808211156200031f57600081600090555060010162000305565b5090565b90565b6116e780620003366000396000f3fe6080604052600436106100fd5760003560e01c80637150d8ae11610095578063ba0892d911610064578063ba0892d9146103a5578063c45a0155146103bc578063d0e30db014610413578063f629ad301461043e578063fd0160fe146104ce576100fd565b80637150d8ae146102c9578063a035b1fe14610320578063a0cb23cd1461034b578063b3f05b9714610376576100fd565b80632323f8f5116100d15780632323f8f51461022f5780633094ac1b146102395780633e23b9f9146102685780634ed523e9146102bf576100fd565b80629190551461010257806308551a531461019257806316ff7c15146101e957806318be633f14610218575b600080fd5b34801561010e57600080fd5b5061011761055e565b6040518080602001828103825283818151815260200191508051906020019080838360005b8381101561015757808201518184015260208101905061013c565b50505050905090810190601f1680156101845780820380516001836020036101000a031916815260200191505b509250505060405180910390f35b34801561019e57600080fd5b506101a76105fc565b604051808273ffffffffffffffffffffffffffffffffffffffff1673ffffffffffffffffffffffffffffffffffffffff16815260200191505060405180910390f35b3480156101f557600080fd5b506101fe610622565b604051808215151515815260200191505060405180910390f35b34801561022457600080fd5b5061022d610635565b005b610237610864565b005b34801561024557600080fd5b5061024e610bfe565b604051808215151515815260200191505060405180910390f35b34801561027457600080fd5b5061027d610c11565b604051808273ffffffffffffffffffffffffffffffffffffffff1673ffffffffffffffffffffffffffffffffffffffff16815260200191505060405180910390f35b6102c7610c36565b005b3480156102d557600080fd5b506102de610ff9565b604051808273ffffffffffffffffffffffffffffffffffffffff1673ffffffffffffffffffffffffffffffffffffffff16815260200191505060405180910390f35b34801561032c57600080fd5b5061033561101f565b6040518082815260200191505060405180910390f35b34801561035757600080fd5b50610360611025565b6040518082815260200191505060405180910390f35b34801561038257600080fd5b5061038b61102b565b604051808215151515815260200191505060405180910390f35b3480156103b157600080fd5b506103ba61103e565b005b3480156103c857600080fd5b506103d1611387565b604051808273ffffffffffffffffffffffffffffffffffffffff1673ffffffffffffffffffffffffffffffffffffffff16815260200191505060405180910390f35b34801561041f57600080fd5b506104286113ad565b6040518082815260200191505060405180910390f35b34801561044a57600080fd5b506104536113b3565b6040518080602001828103825283818151815260200191508051906020019080838360005b83811015610493578082015181840152602081019050610478565b50505050905090810190601f1680156104c05780820380516001836020036101000a031916815260200191505b509250505060405180910390f35b3480156104da57600080fd5b506104e3611451565b6040518080602001828103825283818151815260200191508051906020019080838360005b83811015610523578082015181840152602081019050610508565b50505050905090810190601f1680156105505780820380516001836020036101000a031916815260200191505b509250505060405180910390f35b60038054600181600116156101000203166002900480601f0160208091040260200160405190810160405280929190818152602001828054600181600116156101000203166002900480156105f45780601f106105c9576101008083540402835291602001916105f4565b820191906000526020600020905b8154815290600101906020018083116105d757829003601f168201915b505050505081565b600560019054906101000a900473ffffffffffffffffffffffffffffffffffffffff1681565b600560009054906101000a900460ff1681565b600560009054906101000a900460ff16156106b8576040517f08c379a000000000000000000000000000000000000000000000000000000000815260040180806020018281038252601a8152602001807f5472616e73616374696f6e20616c72656164792073657420757000000000000081525060200191505060405180910390fd5b600073ffffffffffffffffffffffffffffffffffffffff166000809054906101000a900473ffffffffffffffffffffffffffffffffffffffff1673ffffffffffffffffffffffffffffffffffffffff16141561071057fe5b600560009054906101000a900460ff161561072757fe5b600073ffffffffffffffffffffffffffffffffffffffff16600560019054906101000a900473ffffffffffffffffffffffffffffffffffffffff1673ffffffffffffffffffffffffffffffffffffffff161461077f57fe5b600760009054906101000a900460ff161561079657fe5b600073ffffffffffffffffffffffffffffffffffffffff16600760019054906101000a900473ffffffffffffffffffffffffffffffffffffffff1673ffffffffffffffffffffffffffffffffffffffff16146107ee57fe5b6000600854146107fa57fe5b60006009541461080657fe5b6001600560006101000a81548160ff02191690831515021790555033600560016101000a81548173ffffffffffffffffffffffffffffffffffffffff021916908373ffffffffffffffffffffffffffffffffffffffff160217905550565b600760009054906101000a900460ff166108c9576040517f08c379a00000000000000000000000000000000000000000000000000000000081526004018080602001828103825260268152602001806115236026913960400191505060405180910390fd5b600a60009054906101000a900460ff161561092f576040517f08c379a000000000000000000000000000000000000000000000000000000000815260040180806020018281038252602d815260200180611599602d913960400191505060405180910390fd5b3373ffffffffffffffffffffffffffffffffffffffff16600760019054906101000a900473ffffffffffffffffffffffffffffffffffffffff1673ffffffffffffffffffffffffffffffffffffffff16146109d5576040517f08c379a00000000000000000000000000000000000000000000000000000000081526004018080602001828103825260238152602001806116996023913960400191505060405180910390fd5b600654600854340114610a33576040517f08c379a000000000000000000000000000000000000000000000000000000000815260040180806020018281038252603f81526020018061161e603f913960400191505060405180910390fd5b600073ffffffffffffffffffffffffffffffffffffffff166000809054906101000a900473ffffffffffffffffffffffffffffffffffffffff1673ffffffffffffffffffffffffffffffffffffffff161415610a8b57fe5b600560009054906101000a900460ff16610aa157fe5b600073ffffffffffffffffffffffffffffffffffffffff16600560019054906101000a900473ffffffffffffffffffffffffffffffffffffffff1673ffffffffffffffffffffffffffffffffffffffff161415610afa57fe5b600760009054906101000a900460ff16610b1057fe5b600073ffffffffffffffffffffffffffffffffffffffff16600760019054906101000a900473ffffffffffffffffffffffffffffffffffffffff1673ffffffffffffffffffffffffffffffffffffffff161415610b6957fe5b60006009541415610b7657fe5b6001600a60006101000a81548160ff021916908315150217905550600560019054906101000a900473ffffffffffffffffffffffffffffffffffffffff1673ffffffffffffffffffffffffffffffffffffffff166108fc6006549081150290604051600060405180830381858888f19350505050158015610bfb573d6000803e3d6000fd5b50565b600760009054906101000a900460ff1681565b6000809054906101000a900473ffffffffffffffffffffffffffffffffffffffff1681565b600560009054906101000a900460ff16610c9b576040517f08c379a00000000000000000000000000000000000000000000000000000000081526004018080602001828103825260258152602001806115496025913960400191505060405180910390fd5b600760009054906101000a900460ff1615610d01576040517f08c379a00000000000000000000000000000000000000000000000000000000081526004018080602001828103825260268152602001806115c66026913960400191505060405180910390fd5b600073ffffffffffffffffffffffffffffffffffffffff16600760019054906101000a900473ffffffffffffffffffffffffffffffffffffffff1673ffffffffffffffffffffffffffffffffffffffff1614610dc5576040517f08c379a000000000000000000000000000000000000000000000000000000000815260040180806020018281038252601c8152602001807f436f6e747261637420616c72656164792068617320612062757965720000000081525060200191505060405180910390fd5b6064600a6006540281610dd457fe5b043410158015610de657506006543411155b610e3b576040517f08c379a000000000000000000000000000000000000000000000000000000000815260040180806020018281038252603c81526020018061165d603c913960400191505060405180910390fd5b600073ffffffffffffffffffffffffffffffffffffffff166000809054906101000a900473ffffffffffffffffffffffffffffffffffffffff1673ffffffffffffffffffffffffffffffffffffffff161415610e9357fe5b600560009054906101000a900460ff16610ea957fe5b600073ffffffffffffffffffffffffffffffffffffffff16600560019054906101000a900473ffffffffffffffffffffffffffffffffffffffff1673ffffffffffffffffffffffffffffffffffffffff161415610f0257fe5b600760009054906101000a900460ff1615610f1957fe5b600073ffffffffffffffffffffffffffffffffffffffff16600760019054906101000a900473ffffffffffffffffffffffffffffffffffffffff1673ffffffffffffffffffffffffffffffffffffffff1614610f7157fe5b600060085414610f7d57fe5b600060095414610f8957fe5b6001600760006101000a81548160ff02191690831515021790555033600760016101000a81548173ffffffffffffffffffffffffffffffffffffffff021916908373ffffffffffffffffffffffffffffffffffffffff1602179055503460088190555061012c4201600981905550565b600760019054906101000a900473ffffffffffffffffffffffffffffffffffffffff1681565b60065481565b60095481565b600a60009054906101000a900460ff1681565b600760009054906101000a900460ff166110a3576040517f08c379a000000000000000000000000000000000000000000000000000000000815260040180806020018281038252602b81526020018061156e602b913960400191505060405180910390fd5b600a60009054906101000a900460ff1615611109576040517f08c379a00000000000000000000000000000000000000000000000000000000081526004018080602001828103825260328152602001806115ec6032913960400191505060405180910390fd5b3373ffffffffffffffffffffffffffffffffffffffff16600760019054906101000a900473ffffffffffffffffffffffffffffffffffffffff1673ffffffffffffffffffffffffffffffffffffffff16148061116757504260095411155b6111bc576040517f08c379a00000000000000000000000000000000000000000000000000000000081526004018080602001828103825260338152602001806114f06033913960400191505060405180910390fd5b600073ffffffffffffffffffffffffffffffffffffffff166000809054906101000a900473ffffffffffffffffffffffffffffffffffffffff1673ffffffffffffffffffffffffffffffffffffffff16141561121457fe5b600560009054906101000a900460ff1661122a57fe5b600073ffffffffffffffffffffffffffffffffffffffff16600560019054906101000a900473ffffffffffffffffffffffffffffffffffffffff1673ffffffffffffffffffffffffffffffffffffffff16141561128357fe5b600760009054906101000a900460ff1661129957fe5b600073ffffffffffffffffffffffffffffffffffffffff16600760019054906101000a900473ffffffffffffffffffffffffffffffffffffffff1673ffffffffffffffffffffffffffffffffffffffff1614156112f257fe5b600060095414156112ff57fe5b6001600a60006101000a81548160ff021916908315150217905550600560019054906101000a900473ffffffffffffffffffffffffffffffffffffffff1673ffffffffffffffffffffffffffffffffffffffff166108fc6008549081150290604051600060405180830381858888f19350505050158015611384573d6000803e3d6000fd5b50565b600160009054906101000a900473ffffffffffffffffffffffffffffffffffffffff1681565b60085481565b60028054600181600116156101000203166002900480601f0160208091040260200160405190810160405280929190818152602001828054600181600116156101000203166002900480156114495780601f1061141e57610100808354040283529160200191611449565b820191906000526020600020905b81548152906001019060200180831161142c57829003601f168201915b505050505081565b60048054600181600116156101000203166002900480601f0160208091040260200160405190810160405280929190818152602001828054600181600116156101000203166002900480156114e75780601f106114bc576101008083540402835291602001916114e7565b820191906000526020600020905b8154815290600101906020018083116114ca57829003601f168201915b50505050508156fe4f6e6c792062757965722063616e207769746864726177206265666f7265207472616e73616374696f6e20646561646c696e6543616e6e6f742066696e616c697a65206e6f6e2d7369676e6564207472616e73616374696f6e43616e6e6f74207369676e207472616e73616374696f6e206265666f72652073656c6c657243616e6e6f742077697468647261772066726f6d206e6f6e2d7369676e6564207472616e73616374696f6e43616e6e6f742066696e616c697a6520616c72656164792066696e616c697a6564207472616e73616374696f6e43616e6e6f74207369676e20616c7265616479207369676e6564207472616e73616374696f6e43616e6e6f742077697468647261772066726f6d20616c72656164792066696e616c697a6564207472616e73616374696f6e4275796572206e6565647320746f20706179207468652072657374206f662074686520636f737420746f2066696e616c697a65207472616e73616374696f6e4275796572206e6565647320746f206465706f736974206265747765656e2031302520616e64203130302520746f207369676e20636f6e74726163744f6e6c792062757965722063616e2066696e616c697a65207472616e73616374696f6ea165627a7a72305820eeae6f90d7a6a606f40f1d1eb506db2671e37351852913ed651eda383f4a931f0029",
  "source": "pragma solidity >=0.4.25 <0.6.0;\n\ncontract HomeTransaction {\n    // Constants\n    uint constant timeBetweenDepositAndFinalization = 5 minutes;\n    uint constant depositPercentage = 10;\n\n    // Set at creation\n    address public realtor;\n    address public factory;\n    string public homeAddress;\n    string public zip;\n    string public city;\n\n    // Set by realtor\n    bool public sellerSigned = false;\n    address payable public seller;\n    uint public price;\n\n    // Set at deposit\n    bool public buyerSigned = false;\n    address public buyer;\n    uint public deposit;\n    uint public finalizeDeadline;\n\n    // Set at finalize\n    bool public finalized = false;\n\n    constructor(string memory _address, string memory _zip, string memory _city, uint _price, address _seller) public {\n        realtor = _seller;\n        factory = msg.sender;\n        homeAddress = _address;\n        zip = _zip;\n        city = _city;\n        price = _price;\n    }\n\n    function sellerSignContract() public {\n        require(!sellerSigned, \"Transaction already set up\");\n\n        assert(realtor != address(0));\n        assert(!sellerSigned);\n        assert(seller == address(0));\n        assert(!buyerSigned);\n        assert(buyer == address(0));\n        assert(deposit == 0);\n        assert(finalizeDeadline == 0);\n\n        sellerSigned = true;\n\n        seller = msg.sender;\n    }\n\n    function buyerSignContractAndPayDeposit() public payable {\n        require(sellerSigned, \"Cannot sign transaction before seller\");\n        require(!buyerSigned, \"Cannot sign already signed transaction\");\n\n        require(buyer == address(0), \"Contract already has a buyer\");\n        require(msg.value >= price*depositPercentage/100 && msg.value <= price, \"Buyer needs to deposit between 10% and 100% to sign contract\");\n\n        assert(realtor != address(0));\n        assert(sellerSigned);\n        assert(seller != address(0));\n        assert(!buyerSigned);\n        assert(buyer == address(0));\n        assert(deposit == 0);\n        assert(finalizeDeadline == 0);\n\n        buyerSigned = true;\n\n        buyer = msg.sender;\n        deposit = msg.value;\n        finalizeDeadline = now + timeBetweenDepositAndFinalization;\n    }\n\n    function buyerFinalizeTransaction() public payable {\n        require(buyerSigned, \"Cannot finalize non-signed transaction\");\n        require(!finalized, \"Cannot finalize already finalized transaction\");\n\n        require(buyer == msg.sender, \"Only buyer can finalize transaction\");\n        require(msg.value + deposit == price, \"Buyer needs to pay the rest of the cost to finalize transaction\");\n\n        assert(realtor != address(0));\n        assert(sellerSigned);\n        assert(seller != address(0));\n        assert(buyerSigned);\n        assert(buyer != address(0));\n        assert(finalizeDeadline != 0);\n\n        finalized = true;\n\n        seller.transfer(price);\n    }\n\n    function anyWithdrawFromTransaction() public {\n        require(buyerSigned, \"Cannot withdraw from non-signed transaction\");\n        require(!finalized, \"Cannot withdraw from already finalized transaction\");\n\n        require(buyer == msg.sender || finalizeDeadline <= now, \"Only buyer can withdraw before transaction deadline\");\n\n        assert(realtor != address(0));\n        assert(sellerSigned);\n        assert(seller != address(0));\n        assert(buyerSigned);\n        assert(buyer != address(0));\n        assert(finalizeDeadline != 0);\n\n        finalized = true;\n\n        seller.transfer(deposit);\n    }\n}\n",
  "sourcePath": "/Users/mikaelainalem/source/Norban-Hackathon-1/contracts/HomeTransaction.sol",
  "compiler": {
    "name": "solc",
    "version": "0.5.8+commit.23d335f2.Emscripten.clang"
  },
  "schemaVersion": "3.0.16",
  "updatedAt": "2019-10-11T12:53:22.413Z",
  "devdoc": {
    "methods": {}
  },
  "userdoc": {
    "methods": {}
  }
}