{
  "contractName": "HomeTransaction",
  "abi": [
    {
      "constant": true,
      "inputs": [],
      "name": "seller",
      "outputs": [
        {
          "name": "",
          "type": "address"
        }
      ],
      "payable": false,
      "stateMutability": "view",
      "type": "function"
    },
    {
      "constant": true,
      "inputs": [],
      "name": "sellerSigned",
      "outputs": [
        {
          "name": "",
          "type": "bool"
        }
      ],
      "payable": false,
      "stateMutability": "view",
      "type": "function"
    },
    {
      "constant": true,
      "inputs": [],
      "name": "object",
      "outputs": [
        {
          "name": "",
          "type": "string"
        }
      ],
      "payable": false,
      "stateMutability": "view",
      "type": "function"
    },
    {
      "constant": true,
      "inputs": [],
      "name": "buyerSigned",
      "outputs": [
        {
          "name": "",
          "type": "bool"
        }
      ],
      "payable": false,
      "stateMutability": "view",
      "type": "function"
    },
    {
      "constant": true,
      "inputs": [],
      "name": "realtor",
      "outputs": [
        {
          "name": "",
          "type": "address"
        }
      ],
      "payable": false,
      "stateMutability": "view",
      "type": "function"
    },
    {
      "constant": true,
      "inputs": [],
      "name": "buyer",
      "outputs": [
        {
          "name": "",
          "type": "address"
        }
      ],
      "payable": false,
      "stateMutability": "view",
      "type": "function"
    },
    {
      "constant": true,
      "inputs": [],
      "name": "price",
      "outputs": [
        {
          "name": "",
          "type": "uint256"
        }
      ],
      "payable": false,
      "stateMutability": "view",
      "type": "function"
    },
    {
      "constant": true,
      "inputs": [],
      "name": "finalizeDeadline",
      "outputs": [
        {
          "name": "",
          "type": "uint256"
        }
      ],
      "payable": false,
      "stateMutability": "view",
      "type": "function"
    },
    {
      "constant": true,
      "inputs": [],
      "name": "finalized",
      "outputs": [
        {
          "name": "",
          "type": "bool"
        }
      ],
      "payable": false,
      "stateMutability": "view",
      "type": "function"
    },
    {
      "constant": true,
      "inputs": [],
      "name": "deposit",
      "outputs": [
        {
          "name": "",
          "type": "uint256"
        }
      ],
      "payable": false,
      "stateMutability": "view",
      "type": "function"
    },
    {
      "inputs": [
        {
          "name": "_object",
          "type": "string"
        }
      ],
      "payable": false,
      "stateMutability": "nonpayable",
      "type": "constructor"
    },
    {
      "constant": false,
      "inputs": [
        {
          "name": "_price",
          "type": "uint256"
        }
      ],
      "name": "sellerSignContract",
      "outputs": [],
      "payable": false,
      "stateMutability": "nonpayable",
      "type": "function"
    },
    {
      "constant": false,
      "inputs": [],
      "name": "buyerSignContractAndPayDeposit",
      "outputs": [],
      "payable": true,
      "stateMutability": "payable",
      "type": "function"
    },
    {
      "constant": false,
      "inputs": [],
      "name": "buyerFinalizeTransaction",
      "outputs": [],
      "payable": true,
      "stateMutability": "payable",
      "type": "function"
    },
    {
      "constant": false,
      "inputs": [],
      "name": "anyWithdrawFromTransaction",
      "outputs": [],
      "payable": false,
      "stateMutability": "nonpayable",
      "type": "function"
    }
  ],
  "bytecode": "0x6080604052336000806101000a81548173ffffffffffffffffffffffffffffffffffffffff021916908373ffffffffffffffffffffffffffffffffffffffff1602179055506000600260006101000a81548160ff0219169083151502179055506000600460006101000a81548160ff0219169083151502179055506000600760006101000a81548160ff0219169083151502179055503480156100a157600080fd5b50604051620010df380380620010df833981018060405260208110156100c657600080fd5b8101908080516401000000008111156100de57600080fd5b828101905060208101848111156100f457600080fd5b815185600182028301116401000000008211171561011157600080fd5b5050929190505050806001908051906020019061012f929190610136565b50506101db565b828054600181600116156101000203166002900490600052602060002090601f016020900481019282601f1061017757805160ff19168380011785556101a5565b828001600101855582156101a5579182015b828111156101a4578251825591602001919060010190610189565b5b5090506101b291906101b6565b5090565b6101d891905b808211156101d45760008160009055506001016101bc565b5090565b90565b610ef480620001eb6000396000f3fe6080604052600436106100dc5760003560e01c80634ed523e91161007f578063a0cb23cd11610059578063a0cb23cd1461034e578063b3f05b9714610379578063ba0892d9146103a8578063d0e30db0146103bf576100dc565b80634ed523e9146102c25780637150d8ae146102cc578063a035b1fe14610323576100dc565b80632323f8f5116100bb5780632323f8f5146101a25780632812988f146101ac5780633094ac1b1461023c5780633e23b9f91461026b576100dc565b8062ff4b3d146100e157806308551a531461011c57806316ff7c1514610173575b600080fd5b3480156100ed57600080fd5b5061011a6004803603602081101561010457600080fd5b81019080803590602001909291905050506103ea565b005b34801561012857600080fd5b506101316104d3565b604051808273ffffffffffffffffffffffffffffffffffffffff1673ffffffffffffffffffffffffffffffffffffffff16815260200191505060405180910390f35b34801561017f57600080fd5b506101886104f9565b604051808215151515815260200191505060405180910390f35b6101aa61050c565b005b3480156101b857600080fd5b506101c1610763565b6040518080602001828103825283818151815260200191508051906020019080838360005b838110156102015780820151818401526020810190506101e6565b50505050905090810190601f16801561022e5780820380516001836020036101000a031916815260200191505b509250505060405180910390f35b34801561024857600080fd5b50610251610801565b604051808215151515815260200191505060405180910390f35b34801561027757600080fd5b50610280610814565b604051808273ffffffffffffffffffffffffffffffffffffffff1673ffffffffffffffffffffffffffffffffffffffff16815260200191505060405180910390f35b6102ca610839565b005b3480156102d857600080fd5b506102e1610aab565b604051808273ffffffffffffffffffffffffffffffffffffffff1673ffffffffffffffffffffffffffffffffffffffff16815260200191505060405180910390f35b34801561032f57600080fd5b50610338610ad1565b6040518082815260200191505060405180910390f35b34801561035a57600080fd5b50610363610ad7565b6040518082815260200191505060405180910390f35b34801561038557600080fd5b5061038e610add565b604051808215151515815260200191505060405180910390f35b3480156103b457600080fd5b506103bd610af0565b005b3480156103cb57600080fd5b506103d4610cf6565b6040518082815260200191505060405180910390f35b600260009054906101000a900460ff161561046d576040517f08c379a000000000000000000000000000000000000000000000000000000000815260040180806020018281038252601a8152602001807f5472616e73616374696f6e20616c72656164792073657420757000000000000081525060200191505060405180910390fd5b33600260016101000a81548173ffffffffffffffffffffffffffffffffffffffff021916908373ffffffffffffffffffffffffffffffffffffffff160217905550806003819055506001600260006101000a81548160ff02191690831515021790555050565b600260019054906101000a900473ffffffffffffffffffffffffffffffffffffffff1681565b600260009054906101000a900460ff1681565b600460009054906101000a900460ff16610571576040517f08c379a0000000000000000000000000000000000000000000000000000000008152600401808060200182810382526026815260200180610d306026913960400191505060405180910390fd5b600760009054906101000a900460ff16156105d7576040517f08c379a000000000000000000000000000000000000000000000000000000000815260040180806020018281038252602d815260200180610da6602d913960400191505060405180910390fd5b3373ffffffffffffffffffffffffffffffffffffffff16600460019054906101000a900473ffffffffffffffffffffffffffffffffffffffff1673ffffffffffffffffffffffffffffffffffffffff161461067d576040517f08c379a0000000000000000000000000000000000000000000000000000000008152600401808060200182810382526023815260200180610ea66023913960400191505060405180910390fd5b6003546005543401146106db576040517f08c379a000000000000000000000000000000000000000000000000000000000815260040180806020018281038252603f815260200180610e2b603f913960400191505060405180910390fd5b600260019054906101000a900473ffffffffffffffffffffffffffffffffffffffff1673ffffffffffffffffffffffffffffffffffffffff166108fc6003549081150290604051600060405180830381858888f19350505050158015610745573d6000803e3d6000fd5b506001600760006101000a81548160ff021916908315150217905550565b60018054600181600116156101000203166002900480601f0160208091040260200160405190810160405280929190818152602001828054600181600116156101000203166002900480156107f95780601f106107ce576101008083540402835291602001916107f9565b820191906000526020600020905b8154815290600101906020018083116107dc57829003601f168201915b505050505081565b600460009054906101000a900460ff1681565b6000809054906101000a900473ffffffffffffffffffffffffffffffffffffffff1681565b600260009054906101000a900460ff1661089e576040517f08c379a0000000000000000000000000000000000000000000000000000000008152600401808060200182810382526025815260200180610d566025913960400191505060405180910390fd5b600460009054906101000a900460ff1615610904576040517f08c379a0000000000000000000000000000000000000000000000000000000008152600401808060200182810382526026815260200180610dd36026913960400191505060405180910390fd5b600073ffffffffffffffffffffffffffffffffffffffff16600460019054906101000a900473ffffffffffffffffffffffffffffffffffffffff1673ffffffffffffffffffffffffffffffffffffffff16146109c8576040517f08c379a000000000000000000000000000000000000000000000000000000000815260040180806020018281038252601c8152602001807f436f6e747261637420616c72656164792068617320612062757965720000000081525060200191505060405180910390fd5b600a600354816109d457fe5b0434101580156109e657506003543411155b610a3b576040517f08c379a000000000000000000000000000000000000000000000000000000000815260040180806020018281038252603c815260200180610e6a603c913960400191505060405180910390fd5b33600460016101000a81548173ffffffffffffffffffffffffffffffffffffffff021916908373ffffffffffffffffffffffffffffffffffffffff1602179055503460058190555061012c42016006819055506001600460006101000a81548160ff021916908315150217905550565b600460019054906101000a900473ffffffffffffffffffffffffffffffffffffffff1681565b60035481565b60065481565b600760009054906101000a900460ff1681565b600460009054906101000a900460ff16610b55576040517f08c379a000000000000000000000000000000000000000000000000000000000815260040180806020018281038252602b815260200180610d7b602b913960400191505060405180910390fd5b600760009054906101000a900460ff1615610bbb576040517f08c379a0000000000000000000000000000000000000000000000000000000008152600401808060200182810382526032815260200180610df96032913960400191505060405180910390fd5b3373ffffffffffffffffffffffffffffffffffffffff16600460019054906101000a900473ffffffffffffffffffffffffffffffffffffffff1673ffffffffffffffffffffffffffffffffffffffff161480610c1957504260065411155b610c6e576040517f08c379a0000000000000000000000000000000000000000000000000000000008152600401808060200182810382526033815260200180610cfd6033913960400191505060405180910390fd5b600260019054906101000a900473ffffffffffffffffffffffffffffffffffffffff1673ffffffffffffffffffffffffffffffffffffffff166108fc6005549081150290604051600060405180830381858888f19350505050158015610cd8573d6000803e3d6000fd5b506001600760006101000a81548160ff021916908315150217905550565b6005548156fe4f6e6c792062757965722063616e207769746864726177206265666f7265207472616e73616374696f6e20646561646c696e6543616e6e6f742066696e616c697a65206e6f6e2d7369676e6564207472616e73616374696f6e43616e6e6f74207369676e207472616e73616374696f6e206265666f72652073656c6c657243616e6e6f742077697468647261772066726f6d206e6f6e2d7369676e6564207472616e73616374696f6e43616e6e6f742066696e616c697a6520616c72656164792066696e616c697a6564207472616e73616374696f6e43616e6e6f74207369676e20616c7265616479207369676e6564207472616e73616374696f6e43616e6e6f742077697468647261772066726f6d20616c72656164792066696e616c697a6564207472616e73616374696f6e4275796572206e6565647320746f20706179207468652072657374206f662074686520636f737420746f2066696e616c697a65207472616e73616374696f6e4275796572206e6565647320746f206465706f736974206265747765656e2031302520616e64203130302520746f207369676e20636f6e74726163744f6e6c792062757965722063616e2066696e616c697a65207472616e73616374696f6ea165627a7a72305820c1507f0d90450506f1680dd147fb213346697d4efacb86e99d18a521e6b1118c0029",
  "source": "pragma solidity ^0.5.8;\n\ncontract HomeTransaction {\n    // Constants\n    uint constant timeBetweenDepositAndFinalization = 5 minutes;\n    \n    // Set at creation\n    address public realtor = msg.sender;\n    string public object;\n\n    // Set by realtor\n    bool public sellerSigned = false;\n    address payable public seller;\n    uint public price;\n\n    // Set at deposit\n    bool public buyerSigned = false;\n    address public buyer;\n    uint public deposit;\n    uint public finalizeDeadline;\n    \n    // Set at finalize\n    bool public finalized = false;\n    \n    constructor(string memory _object) public {\n        object = _object;\n    }\n    \n    function sellerSignContract(uint _price) public {\n        require(!sellerSigned, \"Transaction already set up\");\n\n        seller = msg.sender;\n        price = _price;\n        \n        sellerSigned = true;\n    }\n    \n    function buyerSignContractAndPayDeposit() public payable {\n        require(sellerSigned, \"Cannot sign transaction before seller\");\n        require(!buyerSigned, \"Cannot sign already signed transaction\");\n        \n        require(buyer == address(0), \"Contract already has a buyer\");\n        require(msg.value >= price/10 && msg.value <= price, \"Buyer needs to deposit between 10% and 100% to sign contract\");\n        \n        buyer = msg.sender;\n        deposit = msg.value;\n        finalizeDeadline = now + timeBetweenDepositAndFinalization;\n        \n        buyerSigned = true;\n    }\n    \n    function buyerFinalizeTransaction() public payable {\n        require(buyerSigned, \"Cannot finalize non-signed transaction\");\n        require(!finalized, \"Cannot finalize already finalized transaction\");\n        \n        require(buyer == msg.sender, \"Only buyer can finalize transaction\");\n        require(msg.value + deposit == price, \"Buyer needs to pay the rest of the cost to finalize transaction\");\n        \n        seller.transfer(price);\n        \n        finalized = true;\n    }\n   \n    \n    function anyWithdrawFromTransaction() public {\n        require(buyerSigned, \"Cannot withdraw from non-signed transaction\");\n        require(!finalized, \"Cannot withdraw from already finalized transaction\");\n\n        require(buyer == msg.sender || finalizeDeadline <= now, \"Only buyer can withdraw before transaction deadline\");\n        \n        seller.transfer(deposit);\n        \n        finalized = true;\n    }\n}",
  "sourcePath": "/Users/mikaelainalem/source/Norban-Hackathon-1/contracts/HomeTransaction.sol",
  "compiler": {
    "name": "solc",
    "version": "0.5.8+commit.23d335f2.Emscripten.clang"
  },
  "schemaVersion": "3.0.16",
  "updatedAt": "2019-10-10T13:53:49.194Z",
  "devdoc": {
    "methods": {}
  },
  "userdoc": {
    "methods": {}
  }
}