{
  "contractName": "HomeTransaction",
  "abi": [
    {
      "constant": true,
      "inputs": [],
      "name": "seller",
      "outputs": [
        {
          "name": "",
          "type": "address"
        }
      ],
      "payable": false,
      "stateMutability": "view",
      "type": "function"
    },
    {
      "constant": true,
      "inputs": [],
      "name": "sellerSigned",
      "outputs": [
        {
          "name": "",
          "type": "bool"
        }
      ],
      "payable": false,
      "stateMutability": "view",
      "type": "function"
    },
    {
      "constant": true,
      "inputs": [],
      "name": "object",
      "outputs": [
        {
          "name": "",
          "type": "string"
        }
      ],
      "payable": false,
      "stateMutability": "view",
      "type": "function"
    },
    {
      "constant": true,
      "inputs": [],
      "name": "buyerSigned",
      "outputs": [
        {
          "name": "",
          "type": "bool"
        }
      ],
      "payable": false,
      "stateMutability": "view",
      "type": "function"
    },
    {
      "constant": true,
      "inputs": [],
      "name": "realtor",
      "outputs": [
        {
          "name": "",
          "type": "address"
        }
      ],
      "payable": false,
      "stateMutability": "view",
      "type": "function"
    },
    {
      "constant": true,
      "inputs": [],
      "name": "buyer",
      "outputs": [
        {
          "name": "",
          "type": "address"
        }
      ],
      "payable": false,
      "stateMutability": "view",
      "type": "function"
    },
    {
      "constant": true,
      "inputs": [],
      "name": "price",
      "outputs": [
        {
          "name": "",
          "type": "uint256"
        }
      ],
      "payable": false,
      "stateMutability": "view",
      "type": "function"
    },
    {
      "constant": true,
      "inputs": [],
      "name": "finalizeDeadline",
      "outputs": [
        {
          "name": "",
          "type": "uint256"
        }
      ],
      "payable": false,
      "stateMutability": "view",
      "type": "function"
    },
    {
      "constant": true,
      "inputs": [],
      "name": "finalized",
      "outputs": [
        {
          "name": "",
          "type": "bool"
        }
      ],
      "payable": false,
      "stateMutability": "view",
      "type": "function"
    },
    {
      "constant": true,
      "inputs": [],
      "name": "factory",
      "outputs": [
        {
          "name": "",
          "type": "address"
        }
      ],
      "payable": false,
      "stateMutability": "view",
      "type": "function"
    },
    {
      "constant": true,
      "inputs": [],
      "name": "deposit",
      "outputs": [
        {
          "name": "",
          "type": "uint256"
        }
      ],
      "payable": false,
      "stateMutability": "view",
      "type": "function"
    },
    {
      "inputs": [
        {
          "name": "_object",
          "type": "string"
        },
        {
          "name": "_price",
          "type": "uint256"
        },
        {
          "name": "_seller",
          "type": "address"
        }
      ],
      "payable": false,
      "stateMutability": "nonpayable",
      "type": "constructor"
    },
    {
      "constant": false,
      "inputs": [],
      "name": "sellerSignContract",
      "outputs": [],
      "payable": false,
      "stateMutability": "nonpayable",
      "type": "function"
    },
    {
      "constant": false,
      "inputs": [],
      "name": "buyerSignContractAndPayDeposit",
      "outputs": [],
      "payable": true,
      "stateMutability": "payable",
      "type": "function"
    },
    {
      "constant": false,
      "inputs": [],
      "name": "buyerFinalizeTransaction",
      "outputs": [],
      "payable": true,
      "stateMutability": "payable",
      "type": "function"
    },
    {
      "constant": false,
      "inputs": [],
      "name": "anyWithdrawFromTransaction",
      "outputs": [],
      "payable": false,
      "stateMutability": "nonpayable",
      "type": "function"
    }
  ],
  "bytecode": "0x60806040526000600360006101000a81548160ff0219169083151502179055506000600560006101000a81548160ff0219169083151502179055506000600860006101000a81548160ff0219169083151502179055503480156200006257600080fd5b50604051620016d4380380620016d4833981018060405260608110156200008857600080fd5b810190808051640100000000811115620000a157600080fd5b82810190506020810184811115620000b857600080fd5b8151856001820283011164010000000082111715620000d657600080fd5b50509291906020018051906020019092919080519060200190929190505050806000806101000a81548173ffffffffffffffffffffffffffffffffffffffff021916908373ffffffffffffffffffffffffffffffffffffffff16021790555033600160006101000a81548173ffffffffffffffffffffffffffffffffffffffff021916908373ffffffffffffffffffffffffffffffffffffffff16021790555082600290805190602001906200018e9291906200019f565b50816004819055505050506200024e565b828054600181600116156101000203166002900490600052602060002090601f016020900481019282601f10620001e257805160ff191683800117855562000213565b8280016001018555821562000213579182015b8281111562000212578251825591602001919060010190620001f5565b5b50905062000222919062000226565b5090565b6200024b91905b80821115620002475760008160009055506001016200022d565b5090565b90565b611476806200025e6000396000f3fe6080604052600436106100e85760003560e01c80634ed523e91161008a578063b3f05b9711610059578063b3f05b9714610361578063ba0892d914610390578063c45a0155146103a7578063d0e30db0146103fe576100e8565b80634ed523e9146102aa5780637150d8ae146102b4578063a035b1fe1461030b578063a0cb23cd14610336576100e8565b80632323f8f5116100c65780632323f8f51461018a5780632812988f146101945780633094ac1b146102245780633e23b9f914610253576100e8565b806308551a53146100ed57806316ff7c151461014457806318be633f14610173575b600080fd5b3480156100f957600080fd5b50610102610429565b604051808273ffffffffffffffffffffffffffffffffffffffff1673ffffffffffffffffffffffffffffffffffffffff16815260200191505060405180910390f35b34801561015057600080fd5b5061015961044f565b604051808215151515815260200191505060405180910390f35b34801561017f57600080fd5b50610188610462565b005b610192610691565b005b3480156101a057600080fd5b506101a9610a2b565b6040518080602001828103825283818151815260200191508051906020019080838360005b838110156101e95780820151818401526020810190506101ce565b50505050905090810190601f1680156102165780820380516001836020036101000a031916815260200191505b509250505060405180910390f35b34801561023057600080fd5b50610239610ac9565b604051808215151515815260200191505060405180910390f35b34801561025f57600080fd5b50610268610adc565b604051808273ffffffffffffffffffffffffffffffffffffffff1673ffffffffffffffffffffffffffffffffffffffff16815260200191505060405180910390f35b6102b2610b01565b005b3480156102c057600080fd5b506102c9610ec4565b604051808273ffffffffffffffffffffffffffffffffffffffff1673ffffffffffffffffffffffffffffffffffffffff16815260200191505060405180910390f35b34801561031757600080fd5b50610320610eea565b6040518082815260200191505060405180910390f35b34801561034257600080fd5b5061034b610ef0565b6040518082815260200191505060405180910390f35b34801561036d57600080fd5b50610376610ef6565b604051808215151515815260200191505060405180910390f35b34801561039c57600080fd5b506103a5610f09565b005b3480156103b357600080fd5b506103bc611252565b604051808273ffffffffffffffffffffffffffffffffffffffff1673ffffffffffffffffffffffffffffffffffffffff16815260200191505060405180910390f35b34801561040a57600080fd5b50610413611278565b6040518082815260200191505060405180910390f35b600360019054906101000a900473ffffffffffffffffffffffffffffffffffffffff1681565b600360009054906101000a900460ff1681565b600360009054906101000a900460ff16156104e5576040517f08c379a000000000000000000000000000000000000000000000000000000000815260040180806020018281038252601a8152602001807f5472616e73616374696f6e20616c72656164792073657420757000000000000081525060200191505060405180910390fd5b600073ffffffffffffffffffffffffffffffffffffffff166000809054906101000a900473ffffffffffffffffffffffffffffffffffffffff1673ffffffffffffffffffffffffffffffffffffffff16141561053d57fe5b600360009054906101000a900460ff161561055457fe5b600073ffffffffffffffffffffffffffffffffffffffff16600360019054906101000a900473ffffffffffffffffffffffffffffffffffffffff1673ffffffffffffffffffffffffffffffffffffffff16146105ac57fe5b600560009054906101000a900460ff16156105c357fe5b600073ffffffffffffffffffffffffffffffffffffffff16600560019054906101000a900473ffffffffffffffffffffffffffffffffffffffff1673ffffffffffffffffffffffffffffffffffffffff161461061b57fe5b60006006541461062757fe5b60006007541461063357fe5b6001600360006101000a81548160ff02191690831515021790555033600360016101000a81548173ffffffffffffffffffffffffffffffffffffffff021916908373ffffffffffffffffffffffffffffffffffffffff160217905550565b600560009054906101000a900460ff166106f6576040517f08c379a00000000000000000000000000000000000000000000000000000000081526004018080602001828103825260268152602001806112b26026913960400191505060405180910390fd5b600860009054906101000a900460ff161561075c576040517f08c379a000000000000000000000000000000000000000000000000000000000815260040180806020018281038252602d815260200180611328602d913960400191505060405180910390fd5b3373ffffffffffffffffffffffffffffffffffffffff16600560019054906101000a900473ffffffffffffffffffffffffffffffffffffffff1673ffffffffffffffffffffffffffffffffffffffff1614610802576040517f08c379a00000000000000000000000000000000000000000000000000000000081526004018080602001828103825260238152602001806114286023913960400191505060405180910390fd5b600454600654340114610860576040517f08c379a000000000000000000000000000000000000000000000000000000000815260040180806020018281038252603f8152602001806113ad603f913960400191505060405180910390fd5b600073ffffffffffffffffffffffffffffffffffffffff166000809054906101000a900473ffffffffffffffffffffffffffffffffffffffff1673ffffffffffffffffffffffffffffffffffffffff1614156108b857fe5b600360009054906101000a900460ff166108ce57fe5b600073ffffffffffffffffffffffffffffffffffffffff16600360019054906101000a900473ffffffffffffffffffffffffffffffffffffffff1673ffffffffffffffffffffffffffffffffffffffff16141561092757fe5b600560009054906101000a900460ff1661093d57fe5b600073ffffffffffffffffffffffffffffffffffffffff16600560019054906101000a900473ffffffffffffffffffffffffffffffffffffffff1673ffffffffffffffffffffffffffffffffffffffff16141561099657fe5b600060075414156109a357fe5b6001600860006101000a81548160ff021916908315150217905550600360019054906101000a900473ffffffffffffffffffffffffffffffffffffffff1673ffffffffffffffffffffffffffffffffffffffff166108fc6004549081150290604051600060405180830381858888f19350505050158015610a28573d6000803e3d6000fd5b50565b60028054600181600116156101000203166002900480601f016020809104026020016040519081016040528092919081815260200182805460018160011615610100020316600290048015610ac15780601f10610a9657610100808354040283529160200191610ac1565b820191906000526020600020905b815481529060010190602001808311610aa457829003601f168201915b505050505081565b600560009054906101000a900460ff1681565b6000809054906101000a900473ffffffffffffffffffffffffffffffffffffffff1681565b600360009054906101000a900460ff16610b66576040517f08c379a00000000000000000000000000000000000000000000000000000000081526004018080602001828103825260258152602001806112d86025913960400191505060405180910390fd5b600560009054906101000a900460ff1615610bcc576040517f08c379a00000000000000000000000000000000000000000000000000000000081526004018080602001828103825260268152602001806113556026913960400191505060405180910390fd5b600073ffffffffffffffffffffffffffffffffffffffff16600560019054906101000a900473ffffffffffffffffffffffffffffffffffffffff1673ffffffffffffffffffffffffffffffffffffffff1614610c90576040517f08c379a000000000000000000000000000000000000000000000000000000000815260040180806020018281038252601c8152602001807f436f6e747261637420616c72656164792068617320612062757965720000000081525060200191505060405180910390fd5b6064600a6004540281610c9f57fe5b043410158015610cb157506004543411155b610d06576040517f08c379a000000000000000000000000000000000000000000000000000000000815260040180806020018281038252603c8152602001806113ec603c913960400191505060405180910390fd5b600073ffffffffffffffffffffffffffffffffffffffff166000809054906101000a900473ffffffffffffffffffffffffffffffffffffffff1673ffffffffffffffffffffffffffffffffffffffff161415610d5e57fe5b600360009054906101000a900460ff16610d7457fe5b600073ffffffffffffffffffffffffffffffffffffffff16600360019054906101000a900473ffffffffffffffffffffffffffffffffffffffff1673ffffffffffffffffffffffffffffffffffffffff161415610dcd57fe5b600560009054906101000a900460ff1615610de457fe5b600073ffffffffffffffffffffffffffffffffffffffff16600560019054906101000a900473ffffffffffffffffffffffffffffffffffffffff1673ffffffffffffffffffffffffffffffffffffffff1614610e3c57fe5b600060065414610e4857fe5b600060075414610e5457fe5b6001600560006101000a81548160ff02191690831515021790555033600560016101000a81548173ffffffffffffffffffffffffffffffffffffffff021916908373ffffffffffffffffffffffffffffffffffffffff1602179055503460068190555061012c4201600781905550565b600560019054906101000a900473ffffffffffffffffffffffffffffffffffffffff1681565b60045481565b60075481565b600860009054906101000a900460ff1681565b600560009054906101000a900460ff16610f6e576040517f08c379a000000000000000000000000000000000000000000000000000000000815260040180806020018281038252602b8152602001806112fd602b913960400191505060405180910390fd5b600860009054906101000a900460ff1615610fd4576040517f08c379a000000000000000000000000000000000000000000000000000000000815260040180806020018281038252603281526020018061137b6032913960400191505060405180910390fd5b3373ffffffffffffffffffffffffffffffffffffffff16600560019054906101000a900473ffffffffffffffffffffffffffffffffffffffff1673ffffffffffffffffffffffffffffffffffffffff16148061103257504260075411155b611087576040517f08c379a000000000000000000000000000000000000000000000000000000000815260040180806020018281038252603381526020018061127f6033913960400191505060405180910390fd5b600073ffffffffffffffffffffffffffffffffffffffff166000809054906101000a900473ffffffffffffffffffffffffffffffffffffffff1673ffffffffffffffffffffffffffffffffffffffff1614156110df57fe5b600360009054906101000a900460ff166110f557fe5b600073ffffffffffffffffffffffffffffffffffffffff16600360019054906101000a900473ffffffffffffffffffffffffffffffffffffffff1673ffffffffffffffffffffffffffffffffffffffff16141561114e57fe5b600560009054906101000a900460ff1661116457fe5b600073ffffffffffffffffffffffffffffffffffffffff16600560019054906101000a900473ffffffffffffffffffffffffffffffffffffffff1673ffffffffffffffffffffffffffffffffffffffff1614156111bd57fe5b600060075414156111ca57fe5b6001600860006101000a81548160ff021916908315150217905550600360019054906101000a900473ffffffffffffffffffffffffffffffffffffffff1673ffffffffffffffffffffffffffffffffffffffff166108fc6006549081150290604051600060405180830381858888f1935050505015801561124f573d6000803e3d6000fd5b50565b600160009054906101000a900473ffffffffffffffffffffffffffffffffffffffff1681565b6006548156fe4f6e6c792062757965722063616e207769746864726177206265666f7265207472616e73616374696f6e20646561646c696e6543616e6e6f742066696e616c697a65206e6f6e2d7369676e6564207472616e73616374696f6e43616e6e6f74207369676e207472616e73616374696f6e206265666f72652073656c6c657243616e6e6f742077697468647261772066726f6d206e6f6e2d7369676e6564207472616e73616374696f6e43616e6e6f742066696e616c697a6520616c72656164792066696e616c697a6564207472616e73616374696f6e43616e6e6f74207369676e20616c7265616479207369676e6564207472616e73616374696f6e43616e6e6f742077697468647261772066726f6d20616c72656164792066696e616c697a6564207472616e73616374696f6e4275796572206e6565647320746f20706179207468652072657374206f662074686520636f737420746f2066696e616c697a65207472616e73616374696f6e4275796572206e6565647320746f206465706f736974206265747765656e2031302520616e64203130302520746f207369676e20636f6e74726163744f6e6c792062757965722063616e2066696e616c697a65207472616e73616374696f6ea165627a7a72305820a51d48a082c188ef8484b76dd6f2fc9e1c3068d14282a2e2f13b85949cd0e8a70029",
  "source": "pragma solidity >=0.4.25 <0.6.0;\n\ncontract HomeTransaction {\n    // Constants\n    uint constant timeBetweenDepositAndFinalization = 5 minutes;\n    uint constant depositPercentage = 10;\n\n    // Set at creation\n    address public realtor;\n    address public factory;\n    string public object;\n\n    // Set by realtor\n    bool public sellerSigned = false;\n    address payable public seller;\n    uint public price;\n\n    // Set at deposit\n    bool public buyerSigned = false;\n    address public buyer;\n    uint public deposit;\n    uint public finalizeDeadline;\n\n    // Set at finalize\n    bool public finalized = false;\n\n    constructor(string memory _object, uint _price, address _seller) public {\n        realtor = _seller;\n        factory = msg.sender;\n        object = _object;\n        price = _price;\n    }\n\n    function sellerSignContract() public {\n        require(!sellerSigned, \"Transaction already set up\");\n\n        assert(realtor != address(0));\n        assert(!sellerSigned);\n        assert(seller == address(0));\n        assert(!buyerSigned);\n        assert(buyer == address(0));\n        assert(deposit == 0);\n        assert(finalizeDeadline == 0);\n\n        sellerSigned = true;\n\n        seller = msg.sender;\n    }\n\n    function buyerSignContractAndPayDeposit() public payable {\n        require(sellerSigned, \"Cannot sign transaction before seller\");\n        require(!buyerSigned, \"Cannot sign already signed transaction\");\n\n        require(buyer == address(0), \"Contract already has a buyer\");\n        require(msg.value >= price*depositPercentage/100 && msg.value <= price, \"Buyer needs to deposit between 10% and 100% to sign contract\");\n\n        assert(realtor != address(0));\n        assert(sellerSigned);\n        assert(seller != address(0));\n        assert(!buyerSigned);\n        assert(buyer == address(0));\n        assert(deposit == 0);\n        assert(finalizeDeadline == 0);\n\n        buyerSigned = true;\n\n        buyer = msg.sender;\n        deposit = msg.value;\n        finalizeDeadline = now + timeBetweenDepositAndFinalization;\n    }\n\n    function buyerFinalizeTransaction() public payable {\n        require(buyerSigned, \"Cannot finalize non-signed transaction\");\n        require(!finalized, \"Cannot finalize already finalized transaction\");\n\n        require(buyer == msg.sender, \"Only buyer can finalize transaction\");\n        require(msg.value + deposit == price, \"Buyer needs to pay the rest of the cost to finalize transaction\");\n\n        assert(realtor != address(0));\n        assert(sellerSigned);\n        assert(seller != address(0));\n        assert(buyerSigned);\n        assert(buyer != address(0));\n        assert(finalizeDeadline != 0);\n\n        finalized = true;\n\n        seller.transfer(price);\n    }\n\n    function anyWithdrawFromTransaction() public {\n        require(buyerSigned, \"Cannot withdraw from non-signed transaction\");\n        require(!finalized, \"Cannot withdraw from already finalized transaction\");\n\n        require(buyer == msg.sender || finalizeDeadline <= now, \"Only buyer can withdraw before transaction deadline\");\n\n        assert(realtor != address(0));\n        assert(sellerSigned);\n        assert(seller != address(0));\n        assert(buyerSigned);\n        assert(buyer != address(0));\n        assert(finalizeDeadline != 0);\n\n        finalized = true;\n\n        seller.transfer(deposit);\n    }\n}\n",
  "sourcePath": "/Volumes/Git/franklydev/norban-hackathon/contracts/HomeTransaction.sol",
  "compiler": {
    "name": "solc",
    "version": "0.5.8+commit.23d335f2.Emscripten.clang"
  },
  "schemaVersion": "3.0.16",
  "updatedAt": "2019-10-11T11:28:47.554Z",
  "devdoc": {
    "methods": {}
  },
  "userdoc": {
    "methods": {}
  }
}