{
  "contractName": "HomeTransaction",
  "abi": [
    {
      "constant": true,
      "inputs": [],
      "name": "seller",
      "outputs": [
        {
          "name": "",
          "type": "address"
        }
      ],
      "payable": false,
      "stateMutability": "view",
      "type": "function"
    },
    {
      "constant": true,
      "inputs": [],
      "name": "sellerSigned",
      "outputs": [
        {
          "name": "",
          "type": "bool"
        }
      ],
      "payable": false,
      "stateMutability": "view",
      "type": "function"
    },
    {
      "constant": true,
      "inputs": [],
      "name": "object",
      "outputs": [
        {
          "name": "",
          "type": "string"
        }
      ],
      "payable": false,
      "stateMutability": "view",
      "type": "function"
    },
    {
      "constant": true,
      "inputs": [],
      "name": "buyerSigned",
      "outputs": [
        {
          "name": "",
          "type": "bool"
        }
      ],
      "payable": false,
      "stateMutability": "view",
      "type": "function"
    },
    {
      "constant": true,
      "inputs": [],
      "name": "realtor",
      "outputs": [
        {
          "name": "",
          "type": "address"
        }
      ],
      "payable": false,
      "stateMutability": "view",
      "type": "function"
    },
    {
      "constant": true,
      "inputs": [],
      "name": "buyer",
      "outputs": [
        {
          "name": "",
          "type": "address"
        }
      ],
      "payable": false,
      "stateMutability": "view",
      "type": "function"
    },
    {
      "constant": true,
      "inputs": [],
      "name": "price",
      "outputs": [
        {
          "name": "",
          "type": "uint256"
        }
      ],
      "payable": false,
      "stateMutability": "view",
      "type": "function"
    },
    {
      "constant": true,
      "inputs": [],
      "name": "finalizeDeadline",
      "outputs": [
        {
          "name": "",
          "type": "uint256"
        }
      ],
      "payable": false,
      "stateMutability": "view",
      "type": "function"
    },
    {
      "constant": true,
      "inputs": [],
      "name": "finalized",
      "outputs": [
        {
          "name": "",
          "type": "bool"
        }
      ],
      "payable": false,
      "stateMutability": "view",
      "type": "function"
    },
    {
      "constant": true,
      "inputs": [],
      "name": "factory",
      "outputs": [
        {
          "name": "",
          "type": "address"
        }
      ],
      "payable": false,
      "stateMutability": "view",
      "type": "function"
    },
    {
      "constant": true,
      "inputs": [],
      "name": "deposit",
      "outputs": [
        {
          "name": "",
          "type": "uint256"
        }
      ],
      "payable": false,
      "stateMutability": "view",
      "type": "function"
    },
    {
      "inputs": [
        {
          "name": "_object",
          "type": "string"
        },
        {
          "name": "owner",
          "type": "address"
        }
      ],
      "payable": false,
      "stateMutability": "nonpayable",
      "type": "constructor"
    },
    {
      "constant": false,
      "inputs": [
        {
          "name": "_price",
          "type": "uint256"
        }
      ],
      "name": "sellerSignContract",
      "outputs": [],
      "payable": false,
      "stateMutability": "nonpayable",
      "type": "function"
    },
    {
      "constant": false,
      "inputs": [],
      "name": "buyerSignContractAndPayDeposit",
      "outputs": [],
      "payable": true,
      "stateMutability": "payable",
      "type": "function"
    },
    {
      "constant": false,
      "inputs": [],
      "name": "buyerFinalizeTransaction",
      "outputs": [],
      "payable": true,
      "stateMutability": "payable",
      "type": "function"
    },
    {
      "constant": false,
      "inputs": [],
      "name": "anyWithdrawFromTransaction",
      "outputs": [],
      "payable": false,
      "stateMutability": "nonpayable",
      "type": "function"
    }
  ],
  "bytecode": "0x60806040526000600360006101000a81548160ff0219169083151502179055506000600560006101000a81548160ff0219169083151502179055506000600860006101000a81548160ff0219169083151502179055503480156200006257600080fd5b50604051620015b3380380620015b3833981018060405260408110156200008857600080fd5b810190808051640100000000811115620000a157600080fd5b82810190506020810184811115620000b857600080fd5b8151856001820283011164010000000082111715620000d657600080fd5b505092919060200180519060200190929190505050806000806101000a81548173ffffffffffffffffffffffffffffffffffffffff021916908373ffffffffffffffffffffffffffffffffffffffff16021790555033600160006101000a81548173ffffffffffffffffffffffffffffffffffffffff021916908373ffffffffffffffffffffffffffffffffffffffff1602179055508160029080519060200190620001849291906200018d565b5050506200023c565b828054600181600116156101000203166002900490600052602060002090601f016020900481019282601f10620001d057805160ff191683800117855562000201565b8280016001018555821562000201579182015b8281111562000200578251825591602001919060010190620001e3565b5b50905062000210919062000214565b5090565b6200023991905b80821115620002355760008160009055506001016200021b565b5090565b90565b611367806200024c6000396000f3fe6080604052600436106100e75760003560e01c80634ed523e91161008a578063b3f05b9711610059578063b3f05b9714610384578063ba0892d9146103b3578063c45a0155146103ca578063d0e30db014610421576100e7565b80634ed523e9146102cd5780637150d8ae146102d7578063a035b1fe1461032e578063a0cb23cd14610359576100e7565b80632323f8f5116100c65780632323f8f5146101ad5780632812988f146101b75780633094ac1b146102475780633e23b9f914610276576100e7565b8062ff4b3d146100ec57806308551a531461012757806316ff7c151461017e575b600080fd5b3480156100f857600080fd5b506101256004803603602081101561010f57600080fd5b810190808035906020019092919050505061044c565b005b34801561013357600080fd5b5061013c61068f565b604051808273ffffffffffffffffffffffffffffffffffffffff1673ffffffffffffffffffffffffffffffffffffffff16815260200191505060405180910390f35b34801561018a57600080fd5b506101936106b5565b604051808215151515815260200191505060405180910390f35b6101b56106c8565b005b3480156101c357600080fd5b506101cc610a62565b6040518080602001828103825283818151815260200191508051906020019080838360005b8381101561020c5780820151818401526020810190506101f1565b50505050905090810190601f1680156102395780820380516001836020036101000a031916815260200191505b509250505060405180910390f35b34801561025357600080fd5b5061025c610b00565b604051808215151515815260200191505060405180910390f35b34801561028257600080fd5b5061028b610b13565b604051808273ffffffffffffffffffffffffffffffffffffffff1673ffffffffffffffffffffffffffffffffffffffff16815260200191505060405180910390f35b6102d5610b38565b005b3480156102e357600080fd5b506102ec610ef8565b604051808273ffffffffffffffffffffffffffffffffffffffff1673ffffffffffffffffffffffffffffffffffffffff16815260200191505060405180910390f35b34801561033a57600080fd5b50610343610f1e565b6040518082815260200191505060405180910390f35b34801561036557600080fd5b5061036e610f24565b6040518082815260200191505060405180910390f35b34801561039057600080fd5b50610399610f2a565b604051808215151515815260200191505060405180910390f35b3480156103bf57600080fd5b506103c8610f3d565b005b3480156103d657600080fd5b506103df611143565b604051808273ffffffffffffffffffffffffffffffffffffffff1673ffffffffffffffffffffffffffffffffffffffff16815260200191505060405180910390f35b34801561042d57600080fd5b50610436611169565b6040518082815260200191505060405180910390f35b600360009054906101000a900460ff16156104cf576040517f08c379a000000000000000000000000000000000000000000000000000000000815260040180806020018281038252601a8152602001807f5472616e73616374696f6e20616c72656164792073657420757000000000000081525060200191505060405180910390fd5b600073ffffffffffffffffffffffffffffffffffffffff166000809054906101000a900473ffffffffffffffffffffffffffffffffffffffff1673ffffffffffffffffffffffffffffffffffffffff16141561052757fe5b600360009054906101000a900460ff161561053e57fe5b600073ffffffffffffffffffffffffffffffffffffffff16600360019054906101000a900473ffffffffffffffffffffffffffffffffffffffff1673ffffffffffffffffffffffffffffffffffffffff161461059657fe5b6000600454146105a257fe5b600560009054906101000a900460ff16156105b957fe5b600073ffffffffffffffffffffffffffffffffffffffff16600560019054906101000a900473ffffffffffffffffffffffffffffffffffffffff1673ffffffffffffffffffffffffffffffffffffffff161461061157fe5b60006006541461061d57fe5b60006007541461062957fe5b6001600360006101000a81548160ff02191690831515021790555033600360016101000a81548173ffffffffffffffffffffffffffffffffffffffff021916908373ffffffffffffffffffffffffffffffffffffffff1602179055508060048190555050565b600360019054906101000a900473ffffffffffffffffffffffffffffffffffffffff1681565b600360009054906101000a900460ff1681565b600560009054906101000a900460ff1661072d576040517f08c379a00000000000000000000000000000000000000000000000000000000081526004018080602001828103825260268152602001806111a36026913960400191505060405180910390fd5b600860009054906101000a900460ff1615610793576040517f08c379a000000000000000000000000000000000000000000000000000000000815260040180806020018281038252602d815260200180611219602d913960400191505060405180910390fd5b3373ffffffffffffffffffffffffffffffffffffffff16600560019054906101000a900473ffffffffffffffffffffffffffffffffffffffff1673ffffffffffffffffffffffffffffffffffffffff1614610839576040517f08c379a00000000000000000000000000000000000000000000000000000000081526004018080602001828103825260238152602001806113196023913960400191505060405180910390fd5b600454600654340114610897576040517f08c379a000000000000000000000000000000000000000000000000000000000815260040180806020018281038252603f81526020018061129e603f913960400191505060405180910390fd5b600073ffffffffffffffffffffffffffffffffffffffff166000809054906101000a900473ffffffffffffffffffffffffffffffffffffffff1673ffffffffffffffffffffffffffffffffffffffff1614156108ef57fe5b600360009054906101000a900460ff1661090557fe5b600073ffffffffffffffffffffffffffffffffffffffff16600360019054906101000a900473ffffffffffffffffffffffffffffffffffffffff1673ffffffffffffffffffffffffffffffffffffffff16141561095e57fe5b600560009054906101000a900460ff1661097457fe5b600073ffffffffffffffffffffffffffffffffffffffff16600560019054906101000a900473ffffffffffffffffffffffffffffffffffffffff1673ffffffffffffffffffffffffffffffffffffffff1614156109cd57fe5b600060075414156109da57fe5b6001600860006101000a81548160ff021916908315150217905550600360019054906101000a900473ffffffffffffffffffffffffffffffffffffffff1673ffffffffffffffffffffffffffffffffffffffff166108fc6004549081150290604051600060405180830381858888f19350505050158015610a5f573d6000803e3d6000fd5b50565b60028054600181600116156101000203166002900480601f016020809104026020016040519081016040528092919081815260200182805460018160011615610100020316600290048015610af85780601f10610acd57610100808354040283529160200191610af8565b820191906000526020600020905b815481529060010190602001808311610adb57829003601f168201915b505050505081565b600560009054906101000a900460ff1681565b6000809054906101000a900473ffffffffffffffffffffffffffffffffffffffff1681565b600360009054906101000a900460ff16610b9d576040517f08c379a00000000000000000000000000000000000000000000000000000000081526004018080602001828103825260258152602001806111c96025913960400191505060405180910390fd5b600560009054906101000a900460ff1615610c03576040517f08c379a00000000000000000000000000000000000000000000000000000000081526004018080602001828103825260268152602001806112466026913960400191505060405180910390fd5b600073ffffffffffffffffffffffffffffffffffffffff16600560019054906101000a900473ffffffffffffffffffffffffffffffffffffffff1673ffffffffffffffffffffffffffffffffffffffff1614610cc7576040517f08c379a000000000000000000000000000000000000000000000000000000000815260040180806020018281038252601c8152602001807f436f6e747261637420616c72656164792068617320612062757965720000000081525060200191505060405180910390fd5b600a60045481610cd357fe5b043410158015610ce557506004543411155b610d3a576040517f08c379a000000000000000000000000000000000000000000000000000000000815260040180806020018281038252603c8152602001806112dd603c913960400191505060405180910390fd5b600073ffffffffffffffffffffffffffffffffffffffff166000809054906101000a900473ffffffffffffffffffffffffffffffffffffffff1673ffffffffffffffffffffffffffffffffffffffff161415610d9257fe5b600360009054906101000a900460ff16610da857fe5b600073ffffffffffffffffffffffffffffffffffffffff16600360019054906101000a900473ffffffffffffffffffffffffffffffffffffffff1673ffffffffffffffffffffffffffffffffffffffff161415610e0157fe5b600560009054906101000a900460ff1615610e1857fe5b600073ffffffffffffffffffffffffffffffffffffffff16600560019054906101000a900473ffffffffffffffffffffffffffffffffffffffff1673ffffffffffffffffffffffffffffffffffffffff1614610e7057fe5b600060065414610e7c57fe5b600060075414610e8857fe5b6001600560006101000a81548160ff02191690831515021790555033600560016101000a81548173ffffffffffffffffffffffffffffffffffffffff021916908373ffffffffffffffffffffffffffffffffffffffff1602179055503460068190555061012c4201600781905550565b600560019054906101000a900473ffffffffffffffffffffffffffffffffffffffff1681565b60045481565b60075481565b600860009054906101000a900460ff1681565b600560009054906101000a900460ff16610fa2576040517f08c379a000000000000000000000000000000000000000000000000000000000815260040180806020018281038252602b8152602001806111ee602b913960400191505060405180910390fd5b600860009054906101000a900460ff1615611008576040517f08c379a000000000000000000000000000000000000000000000000000000000815260040180806020018281038252603281526020018061126c6032913960400191505060405180910390fd5b3373ffffffffffffffffffffffffffffffffffffffff16600560019054906101000a900473ffffffffffffffffffffffffffffffffffffffff1673ffffffffffffffffffffffffffffffffffffffff16148061106657504260075411155b6110bb576040517f08c379a00000000000000000000000000000000000000000000000000000000081526004018080602001828103825260338152602001806111706033913960400191505060405180910390fd5b6001600860006101000a81548160ff021916908315150217905550600360019054906101000a900473ffffffffffffffffffffffffffffffffffffffff1673ffffffffffffffffffffffffffffffffffffffff166108fc6006549081150290604051600060405180830381858888f19350505050158015611140573d6000803e3d6000fd5b50565b600160009054906101000a900473ffffffffffffffffffffffffffffffffffffffff1681565b6006548156fe4f6e6c792062757965722063616e207769746864726177206265666f7265207472616e73616374696f6e20646561646c696e6543616e6e6f742066696e616c697a65206e6f6e2d7369676e6564207472616e73616374696f6e43616e6e6f74207369676e207472616e73616374696f6e206265666f72652073656c6c657243616e6e6f742077697468647261772066726f6d206e6f6e2d7369676e6564207472616e73616374696f6e43616e6e6f742066696e616c697a6520616c72656164792066696e616c697a6564207472616e73616374696f6e43616e6e6f74207369676e20616c7265616479207369676e6564207472616e73616374696f6e43616e6e6f742077697468647261772066726f6d20616c72656164792066696e616c697a6564207472616e73616374696f6e4275796572206e6565647320746f20706179207468652072657374206f662074686520636f737420746f2066696e616c697a65207472616e73616374696f6e4275796572206e6565647320746f206465706f736974206265747765656e2031302520616e64203130302520746f207369676e20636f6e74726163744f6e6c792062757965722063616e2066696e616c697a65207472616e73616374696f6ea165627a7a7230582035b428e667656089b51f499d0dad410e6b36cf98911c7152c9e3521730e11ba90029",
  "source": "pragma solidity >=0.4.25 <0.6.0;\n\ncontract HomeTransaction {\n    // Constants\n    uint constant timeBetweenDepositAndFinalization = 5 minutes;\n\n    // Set at creation\n    address public realtor;\n    address public factory;\n    string public object;\n\n    // Set by realtor\n    bool public sellerSigned = false;\n    address payable public seller;\n    uint public price;\n\n    // Set at deposit\n    bool public buyerSigned = false;\n    address public buyer;\n    uint public deposit;\n    uint public finalizeDeadline;\n\n    // Set at finalize\n    bool public finalized = false;\n\n    constructor(string memory _object, address owner) public {\n        realtor = owner;\n        factory = msg.sender;\n        object = _object;\n    }\n\n    function sellerSignContract(uint _price) public {\n        require(!sellerSigned, \"Transaction already set up\");\n\n        assert(realtor != address(0));\n        assert(!sellerSigned);\n        assert(seller == address(0));\n        assert(price == 0);\n        assert(!buyerSigned);\n        assert(buyer == address(0));\n        assert(deposit == 0);\n        assert(finalizeDeadline == 0);\n\n        sellerSigned = true;\n\n        seller = msg.sender;\n        price = _price;\n    }\n\n    function buyerSignContractAndPayDeposit() public payable {\n        require(sellerSigned, \"Cannot sign transaction before seller\");\n        require(!buyerSigned, \"Cannot sign already signed transaction\");\n\n        require(buyer == address(0), \"Contract already has a buyer\");\n        require(msg.value >= price/10 && msg.value <= price, \"Buyer needs to deposit between 10% and 100% to sign contract\");\n\n        assert(realtor != address(0));\n        assert(sellerSigned);\n        assert(seller != address(0));\n        assert(!buyerSigned);\n        assert(buyer == address(0));\n        assert(deposit == 0);\n        assert(finalizeDeadline == 0);\n\n        buyerSigned = true;\n\n        buyer = msg.sender;\n        deposit = msg.value;\n        finalizeDeadline = now + timeBetweenDepositAndFinalization;\n    }\n\n    function buyerFinalizeTransaction() public payable {\n        require(buyerSigned, \"Cannot finalize non-signed transaction\");\n        require(!finalized, \"Cannot finalize already finalized transaction\");\n\n        require(buyer == msg.sender, \"Only buyer can finalize transaction\");\n        require(msg.value + deposit == price, \"Buyer needs to pay the rest of the cost to finalize transaction\");\n\n        assert(realtor != address(0));\n        assert(sellerSigned);\n        assert(seller != address(0));\n        assert(buyerSigned);\n        assert(buyer != address(0));\n        assert(finalizeDeadline != 0);\n\n        finalized = true;\n\n        seller.transfer(price);\n    }\n\n    function anyWithdrawFromTransaction() public {\n        require(buyerSigned, \"Cannot withdraw from non-signed transaction\");\n        require(!finalized, \"Cannot withdraw from already finalized transaction\");\n\n        require(buyer == msg.sender || finalizeDeadline <= now, \"Only buyer can withdraw before transaction deadline\");\n\n        //assert(realtor != address(0));\n        //assert(sellerSigned);\n        //assert(seller != address(0));\n        //assert(buyerSigned);\n        //assert(buyer != address(0));\n        //assert(finalizeDeadline != 0);\n\n        finalized = true;\n\n        seller.transfer(deposit);\n    }\n}\n",
  "sourcePath": "/Users/tonyjin/crypto/Norban-Hackathon-1/contracts/HomeTransaction.sol",
  "compiler": {
    "name": "solc",
    "version": "0.5.8+commit.23d335f2.Emscripten.clang"
  },
  "schemaVersion": "3.0.16",
  "updatedAt": "2019-10-11T08:54:23.288Z",
  "devdoc": {
    "methods": {}
  },
  "userdoc": {
    "methods": {}
  }
}