{
  "contractName": "HomeTransaction",
  "abi": [
    {
      "constant": true,
      "inputs": [],
      "name": "zip",
      "outputs": [
        {
          "name": "",
          "type": "string"
        }
      ],
      "payable": false,
      "stateMutability": "view",
      "type": "function"
    },
    {
      "constant": true,
      "inputs": [],
      "name": "seller",
      "outputs": [
        {
          "name": "",
          "type": "address"
        }
      ],
      "payable": false,
      "stateMutability": "view",
      "type": "function"
    },
    {
      "constant": true,
      "inputs": [],
      "name": "realtor",
      "outputs": [
        {
          "name": "",
          "type": "address"
        }
      ],
      "payable": false,
      "stateMutability": "view",
      "type": "function"
    },
    {
      "constant": true,
      "inputs": [],
      "name": "buyer",
      "outputs": [
        {
          "name": "",
          "type": "address"
        }
      ],
      "payable": false,
      "stateMutability": "view",
      "type": "function"
    },
    {
      "constant": true,
      "inputs": [],
      "name": "contractState",
      "outputs": [
        {
          "name": "",
          "type": "uint8"
        }
      ],
      "payable": false,
      "stateMutability": "view",
      "type": "function"
    },
    {
      "constant": true,
      "inputs": [],
      "name": "realtorFee",
      "outputs": [
        {
          "name": "",
          "type": "uint256"
        }
      ],
      "payable": false,
      "stateMutability": "view",
      "type": "function"
    },
    {
      "constant": true,
      "inputs": [],
      "name": "price",
      "outputs": [
        {
          "name": "",
          "type": "uint256"
        }
      ],
      "payable": false,
      "stateMutability": "view",
      "type": "function"
    },
    {
      "constant": true,
      "inputs": [],
      "name": "finalizeDeadline",
      "outputs": [
        {
          "name": "",
          "type": "uint256"
        }
      ],
      "payable": false,
      "stateMutability": "view",
      "type": "function"
    },
    {
      "constant": true,
      "inputs": [],
      "name": "deposit",
      "outputs": [
        {
          "name": "",
          "type": "uint256"
        }
      ],
      "payable": false,
      "stateMutability": "view",
      "type": "function"
    },
    {
      "constant": true,
      "inputs": [],
      "name": "homeAddress",
      "outputs": [
        {
          "name": "",
          "type": "string"
        }
      ],
      "payable": false,
      "stateMutability": "view",
      "type": "function"
    },
    {
      "constant": true,
      "inputs": [],
      "name": "city",
      "outputs": [
        {
          "name": "",
          "type": "string"
        }
      ],
      "payable": false,
      "stateMutability": "view",
      "type": "function"
    },
    {
      "inputs": [
        {
          "name": "_address",
          "type": "string"
        },
        {
          "name": "_zip",
          "type": "string"
        },
        {
          "name": "_city",
          "type": "string"
        },
        {
          "name": "_price",
          "type": "uint256"
        },
        {
          "name": "_realtorFee",
          "type": "uint256"
        },
        {
          "name": "_realtor",
          "type": "address"
        },
        {
          "name": "_seller",
          "type": "address"
        },
        {
          "name": "_buyer",
          "type": "address"
        }
      ],
      "payable": false,
      "stateMutability": "nonpayable",
      "type": "constructor"
    },
    {
      "constant": false,
      "inputs": [],
      "name": "sellerSignContract",
      "outputs": [],
      "payable": true,
      "stateMutability": "payable",
      "type": "function"
    },
    {
      "constant": false,
      "inputs": [],
      "name": "buyerSignContractAndPayDeposit",
      "outputs": [],
      "payable": true,
      "stateMutability": "payable",
      "type": "function"
    },
    {
      "constant": false,
      "inputs": [
        {
          "name": "accepted",
          "type": "bool"
        }
      ],
      "name": "realtorReviewedClosingConditions",
      "outputs": [],
      "payable": false,
      "stateMutability": "nonpayable",
      "type": "function"
    },
    {
      "constant": false,
      "inputs": [],
      "name": "buyerFinalizeTransaction",
      "outputs": [],
      "payable": true,
      "stateMutability": "payable",
      "type": "function"
    },
    {
      "constant": false,
      "inputs": [],
      "name": "anyWithdrawFromTransaction",
      "outputs": [],
      "payable": false,
      "stateMutability": "nonpayable",
      "type": "function"
    }
  ],
  "bytecode": "0x608060405260008060006101000a81548160ff021916908360058111156200002357fe5b02179055506000600a60006101000a81548160ff021916908360028111156200004857fe5b02179055503480156200005a57600080fd5b50604051620017ba380380620017ba83398101806040526101008110156200008157600080fd5b8101908080516401000000008111156200009a57600080fd5b82810190506020810184811115620000b157600080fd5b8151856001820283011164010000000082111715620000cf57600080fd5b50509291906020018051640100000000811115620000ec57600080fd5b828101905060208101848111156200010357600080fd5b81518560018202830111640100000000821117156200012157600080fd5b505092919060200180516401000000008111156200013e57600080fd5b828101905060208101848111156200015557600080fd5b81518560018202830111640100000000821117156200017357600080fd5b50509291906020018051906020019092919080519060200190929190805190602001909291908051906020019092919080519060200190929190505050838510156200020b576040517f08c379a0000000000000000000000000000000000000000000000000000000008152600401808060200182810382526028815260200180620017926028913960400191505060405180910390fd5b82600060016101000a81548173ffffffffffffffffffffffffffffffffffffffff021916908373ffffffffffffffffffffffffffffffffffffffff16021790555081600160006101000a81548173ffffffffffffffffffffffffffffffffffffffff021916908373ffffffffffffffffffffffffffffffffffffffff16021790555080600260006101000a81548173ffffffffffffffffffffffffffffffffffffffff021916908373ffffffffffffffffffffffffffffffffffffffff1602179055508760039080519060200190620002e692919062000335565b508660049080519060200190620002ff92919062000335565b5085600590805190602001906200031892919062000335565b5084600781905550836006819055505050505050505050620003e4565b828054600181600116156101000203166002900490600052602060002090601f016020900481019282601f106200037857805160ff1916838001178555620003a9565b82800160010185558215620003a9579182015b82811115620003a85782518255916020019190600101906200038b565b5b509050620003b89190620003bc565b5090565b620003e191905b80821115620003dd576000816000905550600101620003c3565b5090565b90565b61139e80620003f46000396000f3fe6080604052600436106100f25760003560e01c806385209ee01161008a578063ba0892d911610059578063ba0892d9146103a1578063d0e30db0146103b8578063f629ad30146103e3578063fd0160fe14610473576100f2565b806385209ee0146102e7578063968e28e814610320578063a035b1fe1461034b578063a0cb23cd14610376576100f2565b80633e23b9f9116100c65780633e23b9f9146101f25780634ed523e9146102495780636b0ccb76146102535780637150d8ae14610290576100f2565b8062919055146100f757806308551a531461018757806318be633f146101de5780632323f8f5146101e8575b600080fd5b34801561010357600080fd5b5061010c610503565b6040518080602001828103825283818151815260200191508051906020019080838360005b8381101561014c578082015181840152602081019050610131565b50505050905090810190601f1680156101795780820380516001836020036101000a031916815260200191505b509250505060405180910390f35b34801561019357600080fd5b5061019c6105a1565b604051808273ffffffffffffffffffffffffffffffffffffffff1673ffffffffffffffffffffffffffffffffffffffff16815260200191505060405180910390f35b6101e66105c7565b005b6101f061072c565b005b3480156101fe57600080fd5b506102076109ac565b604051808273ffffffffffffffffffffffffffffffffffffffff1673ffffffffffffffffffffffffffffffffffffffff16815260200191505060405180910390f35b6102516109d2565b005b34801561025f57600080fd5b5061028e6004803603602081101561027657600080fd5b81019080803515159060200190929190505050610bdc565b005b34801561029c57600080fd5b506102a5610e07565b604051808273ffffffffffffffffffffffffffffffffffffffff1673ffffffffffffffffffffffffffffffffffffffff16815260200191505060405180910390f35b3480156102f357600080fd5b506102fc610e2d565b6040518082600581111561030c57fe5b60ff16815260200191505060405180910390f35b34801561032c57600080fd5b50610335610e3f565b6040518082815260200191505060405180910390f35b34801561035757600080fd5b50610360610e45565b6040518082815260200191505060405180910390f35b34801561038257600080fd5b5061038b610e4b565b6040518082815260200191505060405180910390f35b3480156103ad57600080fd5b506103b6610e51565b005b3480156103c457600080fd5b506103cd611080565b6040518082815260200191505060405180910390f35b3480156103ef57600080fd5b506103f8611086565b6040518080602001828103825283818151815260200191508051906020019080838360005b8381101561043857808201518184015260208101905061041d565b50505050905090810190601f1680156104655780820380516001836020036101000a031916815260200191505b509250505060405180910390f35b34801561047f57600080fd5b50610488611124565b6040518080602001828103825283818151815260200191508051906020019080838360005b838110156104c85780820151818401526020810190506104ad565b50505050905090810190601f1680156104f55780820380516001836020036101000a031916815260200191505b509250505060405180910390f35b60048054600181600116156101000203166002900480601f0160208091040260200160405190810160405280929190818152602001828054600181600116156101000203166002900480156105995780601f1061056e57610100808354040283529160200191610599565b820191906000526020600020905b81548152906001019060200180831161057c57829003601f168201915b505050505081565b600160009054906101000a900473ffffffffffffffffffffffffffffffffffffffff1681565b3373ffffffffffffffffffffffffffffffffffffffff16600160009054906101000a900473ffffffffffffffffffffffffffffffffffffffff1673ffffffffffffffffffffffffffffffffffffffff161461068a576040517f08c379a000000000000000000000000000000000000000000000000000000000815260040180806020018281038252601d8152602001807f4f6e6c792073656c6c65722063616e207369676e20636f6e747261637400000081525060200191505060405180910390fd5b6000600581111561069757fe5b6000809054906101000a900460ff1660058111156106b157fe5b14610707576040517f08c379a000000000000000000000000000000000000000000000000000000000815260040180806020018281038252602a815260200180611281602a913960400191505060405180910390fd5b60016000806101000a81548160ff0219169083600581111561072557fe5b0217905550565b3373ffffffffffffffffffffffffffffffffffffffff16600260009054906101000a900473ffffffffffffffffffffffffffffffffffffffff1673ffffffffffffffffffffffffffffffffffffffff16146107d2576040517f08c379a00000000000000000000000000000000000000000000000000000000081526004018080602001828103825260238152602001806113506023913960400191505060405180910390fd5b600360058111156107df57fe5b6000809054906101000a900460ff1660058111156107f957fe5b1461084f576040517f08c379a000000000000000000000000000000000000000000000000000000000815260040180806020018281038252602b815260200180611256602b913960400191505060405180910390fd5b6007546008543401146108ad576040517f08c379a000000000000000000000000000000000000000000000000000000000815260040180806020018281038252603f8152602001806112d5603f913960400191505060405180910390fd5b60046000806101000a81548160ff021916908360058111156108cb57fe5b0217905550600160009054906101000a900473ffffffffffffffffffffffffffffffffffffffff1673ffffffffffffffffffffffffffffffffffffffff166108fc600654600754039081150290604051600060405180830381858888f1935050505015801561093e573d6000803e3d6000fd5b50600060019054906101000a900473ffffffffffffffffffffffffffffffffffffffff1673ffffffffffffffffffffffffffffffffffffffff166108fc6006549081150290604051600060405180830381858888f193505050501580156109a9573d6000803e3d6000fd5b50565b600060019054906101000a900473ffffffffffffffffffffffffffffffffffffffff1681565b3373ffffffffffffffffffffffffffffffffffffffff16600260009054906101000a900473ffffffffffffffffffffffffffffffffffffffff1673ffffffffffffffffffffffffffffffffffffffff1614610a95576040517f08c379a000000000000000000000000000000000000000000000000000000000815260040180806020018281038252601c8152602001807f4f6e6c792062757965722063616e207369676e20636f6e74726163740000000081525060200191505060405180910390fd5b60016005811115610aa257fe5b6000809054906101000a900460ff166005811115610abc57fe5b14610b2f576040517f08c379a000000000000000000000000000000000000000000000000000000000815260040180806020018281038252601a8152602001807f42757965722063616e6e6f74207369676e20636f6e747261637400000000000081525060200191505060405180910390fd5b6064600a6007540281610b3e57fe5b043410158015610b5057506007543411155b610ba5576040517f08c379a000000000000000000000000000000000000000000000000000000000815260040180806020018281038252603c815260200180611314603c913960400191505060405180910390fd5b60026000806101000a81548160ff02191690836005811115610bc357fe5b02179055503460088190555061012c4201600981905550565b3373ffffffffffffffffffffffffffffffffffffffff16600060019054906101000a900473ffffffffffffffffffffffffffffffffffffffff1673ffffffffffffffffffffffffffffffffffffffff1614610c82576040517f08c379a000000000000000000000000000000000000000000000000000000000815260040180806020018281038252602a8152602001806112ab602a913960400191505060405180910390fd5b60026005811115610c8f57fe5b6000809054906101000a900460ff166005811115610ca957fe5b14610cff576040517f08c379a00000000000000000000000000000000000000000000000000000000081526004018080602001828103825260328152602001806111f16032913960400191505060405180910390fd5b8015610d51576001600a60006101000a81548160ff02191690836002811115610d2457fe5b021790555060036000806101000a81548160ff02191690836005811115610d4757fe5b0217905550610e04565b6002600a60006101000a81548160ff02191690836002811115610d7057fe5b021790555060056000806101000a81548160ff02191690836005811115610d9357fe5b0217905550600260009054906101000a900473ffffffffffffffffffffffffffffffffffffffff1673ffffffffffffffffffffffffffffffffffffffff166108fc6008549081150290604051600060405180830381858888f19350505050158015610e02573d6000803e3d6000fd5b505b50565b600260009054906101000a900473ffffffffffffffffffffffffffffffffffffffff1681565b6000809054906101000a900460ff1681565b60065481565b60075481565b60095481565b3373ffffffffffffffffffffffffffffffffffffffff16600260009054906101000a900473ffffffffffffffffffffffffffffffffffffffff1673ffffffffffffffffffffffffffffffffffffffff161480610eaf57504260095411155b610f04576040517f08c379a00000000000000000000000000000000000000000000000000000000081526004018080602001828103825260338152602001806112236033913960400191505060405180910390fd5b60036005811115610f1157fe5b6000809054906101000a900460ff166005811115610f2b57fe5b14610f81576040517f08c379a000000000000000000000000000000000000000000000000000000000815260040180806020018281038252602e8152602001806111c3602e913960400191505060405180910390fd5b60056000806101000a81548160ff02191690836005811115610f9f57fe5b0217905550600160009054906101000a900473ffffffffffffffffffffffffffffffffffffffff1673ffffffffffffffffffffffffffffffffffffffff166108fc600654600854039081150290604051600060405180830381858888f19350505050158015611012573d6000803e3d6000fd5b50600060019054906101000a900473ffffffffffffffffffffffffffffffffffffffff1673ffffffffffffffffffffffffffffffffffffffff166108fc6006549081150290604051600060405180830381858888f1935050505015801561107d573d6000803e3d6000fd5b50565b60085481565b60038054600181600116156101000203166002900480601f01602080910402602001604051908101604052809291908181526020018280546001816001161561010002031660029004801561111c5780601f106110f15761010080835404028352916020019161111c565b820191906000526020600020905b8154815290600101906020018083116110ff57829003601f168201915b505050505081565b60058054600181600116156101000203166002900480601f0160208091040260200160405190810160405280929190818152602001828054600181600116156101000203166002900480156111ba5780601f1061118f576101008083540402835291602001916111ba565b820191906000526020600020905b81548152906001019060200180831161119d57829003601f168201915b50505050508156fe42757965722063616e6e6f742077697468647261772066726f6d206e6f6e2d7369676e656420636f6e747261637443616e6e6f742072657669657720636c6f73696e6720636f6e646974696f6e73206265666f7265207369676e6174757265734f6e6c792062757965722063616e207769746864726177206265666f7265207472616e73616374696f6e20646561646c696e6542757965722063616e6e6f742066696e616c697a65206e6f6e2d726576696577656420636f6e747261637453656c6c65722063616e6e6f74207369676e20616c7265616479207369676e656420636f6e74726163744f6e6c79207265616c746f722063616e2072657669657720636c6f73696e6720636f6e646974696f6e734275796572206e6565647320746f20706179207468652072657374206f662074686520636f737420746f2066696e616c697a65207472616e73616374696f6e4275796572206e6565647320746f206465706f736974206265747765656e2031302520616e64203130302520746f207369676e20636f6e74726163744f6e6c792062757965722063616e2066696e616c697a65207472616e73616374696f6ea165627a7a72305820809419190ce848fe8c6a06080b73b534b6b0b1a8a8861d84729bd9f9aeeff6e300295072696365206e6565647320746f206265206d6f7265207468616e207265616c746f722066656521",
  "source": "pragma solidity >=0.4.25 <0.6.0;\n\ncontract HomeTransaction {\n    // Constants\n    uint constant timeBetweenDepositAndFinalization = 5 minutes;\n    uint constant depositPercentage = 10;\n\n    enum ContractState {\n        WaitingSellerSignature,\n        WaitingBuyerSignature,\n        WaitingRealtorReview,\n        WaitingFinalization,\n        Finalized,\n        Rejected }\n    ContractState public contractState = ContractState.WaitingSellerSignature;\n\n    \n    // Roles acting on contract\n    address payable public realtor;\n    address payable public seller;\n    address payable public buyer;\n\n    // Contract details\n    string public homeAddress;\n    string public zip;\n    string public city;\n    uint public realtorFee;\n    uint public price;\n\n    // Set when buyer signs and pays deposit\n    uint public deposit;\n    uint public finalizeDeadline;\n\n    // Set when realtor reviews closing conditions\n    enum ClosingConditionsReview { Pending, Accepted, Rejected }\n    ClosingConditionsReview closingConditionsReview = ClosingConditionsReview.Pending;\n\n    constructor(\n        string memory _address,\n        string memory _zip,\n        string memory _city,\n        uint _price,\n        uint _realtorFee,\n        address payable _realtor,\n        address payable _seller,\n        address payable _buyer) public {\n        require(_price >= _realtorFee, \"Price needs to be more than realtor fee!\");\n\n        realtor = _realtor;\n        seller = _seller;\n        buyer = _buyer;\n        homeAddress = _address;\n        zip = _zip;\n        city = _city;\n        price = _price;\n        realtorFee = _realtorFee;\n    }\n\n    function sellerSignContract() public payable {\n        require(seller == msg.sender, \"Only seller can sign contract\");\n\n        require(contractState == ContractState.WaitingSellerSignature, \"Seller cannot sign already signed contract\");\n\n        contractState = ContractState.WaitingBuyerSignature;\n    }\n\n    function buyerSignContractAndPayDeposit() public payable {\n        require(buyer == msg.sender, \"Only buyer can sign contract\");\n\n        require(contractState == ContractState.WaitingBuyerSignature, \"Buyer cannot sign contract\");\n    \n        require(msg.value >= price*depositPercentage/100 && msg.value <= price, \"Buyer needs to deposit between 10% and 100% to sign contract\");\n\n        contractState = ContractState.WaitingRealtorReview;\n\n        deposit = msg.value;\n        finalizeDeadline = now + timeBetweenDepositAndFinalization;\n    }\n\n    function realtorReviewedClosingConditions(bool accepted) public {\n        require(realtor == msg.sender, \"Only realtor can review closing conditions\");\n\n        require(contractState == ContractState.WaitingRealtorReview, \"Cannot review closing conditions before signatures\");\n        \n        if (accepted) {\n            closingConditionsReview = ClosingConditionsReview.Accepted;\n            contractState = ContractState.WaitingFinalization;\n        } else {\n            closingConditionsReview = ClosingConditionsReview.Rejected;\n            contractState = ContractState.Rejected;\n            \n            buyer.transfer(deposit);\n        }\n    }\n\n    function buyerFinalizeTransaction() public payable {\n        require(buyer == msg.sender, \"Only buyer can finalize transaction\");\n\n        require(contractState == ContractState.WaitingFinalization, \"Buyer cannot finalize non-reviewed contract\");\n\n        require(msg.value + deposit == price, \"Buyer needs to pay the rest of the cost to finalize transaction\");\n\n        contractState = ContractState.Finalized;\n\n        seller.transfer(price-realtorFee);\n        realtor.transfer(realtorFee);\n    }\n\n    function anyWithdrawFromTransaction() public {\n        require(buyer == msg.sender || finalizeDeadline <= now, \"Only buyer can withdraw before transaction deadline\");\n\n        require(contractState == ContractState.WaitingFinalization, \"Buyer cannot withdraw from non-signed contract\");\n\n        contractState = ContractState.Rejected;\n\n        seller.transfer(deposit-realtorFee);\n        realtor.transfer(realtorFee);\n    }\n}\n",
  "sourcePath": "/Users/mikaelainalem/source/Norban-Hackathon-1/contracts/HomeTransaction.sol",
  "compiler": {
    "name": "solc",
    "version": "0.5.8+commit.23d335f2.Emscripten.clang"
  },
  "schemaVersion": "3.0.16",
  "updatedAt": "2019-10-11T14:35:21.520Z",
  "devdoc": {
    "methods": {}
  },
  "userdoc": {
    "methods": {}
  }
}